:020000040000FA
:1000000020180020250200002D0200002F02000011
:100010004E75424C0080010000000000B20ABFB3E0
:10002000000000000000000000000000410200008D
:100030000000000000000000430200004502000034
:10004000470200004702000047020000470200008C
:10005000470200004702000047020000470200007C
:10006000470200004702000047020000470200006C
:10007000470200004702000047020000470200005C
:10008000470200004702000047020000470200004C
:10009000470200004702000047020000470200003C
:1000A000470200004702000047020000470200002C
:1000B000470200004702000047020000470200001C
:1000C000470200004702000047020000470200000C
:1000D00047020000470200004702000047020000FC
:1000E00047020000470200004702000047020000EC
:1000F00047020000470200004702000047020000DC
:1001000047020000470200004702000047020000CB
:1001100047020000470200004702000047020000BB
:1001200047020000470200004702000047020000AB
:10013000470200004702000047020000470200009B
:10014000470200004702000047020000470200008B
:100150004702000047020000470200001914000097
:10016000470200004702000047020000470200006B
:10017000470200004702000047020000470200005B
:10018000470200004702000047020000470200004B
:10019000470200004702000047020000470200003B
:1001A000470200004702000047020000470200002B
:1001B000470200004702000047020000470200001B
:1001C00047020000470200004702000051270000DC
:1001D00047020000470200004702000047020000FB
:1001E00047020000470200004702000047020000EB
:1001F00047020000470200004702000047020000DB
:1002000047020000470200004702000047020000CA
:100210000348854600F082FA004800475136000046
:10022000201800201248804712480047FEE7704619
:10023000EFF30881EFF309820F4B98470047FEE781
:10024000FEE7FEE7FEE7FEE7ABBE0C4B74469847C1
:1002500020477046F047000009480A490160684697
:1002600008600948486030BFFEE700BF00BF00BF1C
:10027000852C0000110200004D230000DF2A000041
:10028000C0020040000001206B02000003460B4347
:100290009B0703D009E008C9121F08C0042AFAD23C
:1002A00003E00B780370401C491C521EF9D27047C2
:1002B000D2B201E00270401C491EFBD270470022FE
:1002C000F6E710B513460A4604461946FFF7F0FF55
:1002D000204610BD421C0178401C0029FBD1801A29
:1002E000704730B504460020034600E05B1C934293
:1002F00003D2E05CCD5C401BF8D030BDF8B50E46B3
:100300000546002400E0641C285D00F03AF807462A
:10031000305D00F036F8381A02D1295D0029F2D19B
:10032000F8BDF0B51FB40646002082B00546402453
:10033000019100901BE0019922460F46304600F0E3
:100340002EFA049A059B801A994110D3104619463B
:10035000224600F014FA361A8F41019722460120F6
:100360000021009F00F00BFA38184D410090204604
:10037000641E0028DFDC019B00982946324607B046
:10038000F0BD01464139192900D8203070470000DE
:10039000F0B507460846584087B0C00F04904800A3
:1003A0000E46590040084908BC1A884105D2384613
:1003B00031461E4617460B46024658004008104379
:1003C0004CD0300D039040055900400D490D05906B
:1003D000401A0290402872DA18030121000B090527
:1003E0000843019004980092002805D001995242D8
:1003F0000020884100920190029840210A1A019938
:10040000009800F0BCF905460C466B4607CB00F09F
:10041000D7F9C0197141039A0E0D0023D717564022
:100420001A467A40164344D0049A002A2DD0029AE4
:10043000012A039A15DC1205C01A914101263605DE
:10044000001C7141D20F059ED207009301920296C3
:100450002A46234600F0D4F907B0F0BD38463146AD
:10046000FAE71605224A0F46B218C01AB741012111
:100470000905001C4F4100187F41114618187941A9
:10048000E20F10436D19644113E0E2076D08154354
:100490006408C2071443039A01261205C01A914149
:1004A0003605001C7141CE07400830434908C0188A
:1004B00051412A46234600F096F9CDE7FFE704981C
:1004C00001224000C117121A00238B4104983146C3
:1004D000C417381AA141EEE730B40124E4076340A1
:1004E00030BC55E730B40124E407614030BC4FE72D
:1004F0000000E0FFF0B51FB488B00B990998002404
:1005000048400999C00F490049080991C0070B9953
:100510000090490049080B9109990898A64608439C
:100520001CD00B990A98084318D009980124400060
:10053000420D4800410D099824050003000B20439B
:1005400009900B980003000B20430B9050181C4996
:100550004018002201901446104605E00020014694
:100560000DB0F0BD032801DA034600E003239C46EA
:10057000C11A0AAE0AE05F0008ADED5B4F00F75B01
:100580007D430027AA187C41491C5B1E6145F2DDB2
:10059000410004AB5A522104120C0A43240C401CA3
:1005A0000828DFDB019802900099704601910090C5
:1005B000059B049A0799069800F022F9D0E70000FD
:1005C0000DFCFFFFF0B50C465C4085B0E40FE4077E
:1005D00003944C00002664085900944649080246DA
:1005E0000296224321D062460A431ED06200570D74
:1005F0004A000E032303550D012402462C4924050D
:10060000781B1B0B360B4018234326436146009092
:100610001C46501AB44103D30098401C009002E0DD
:10062000921800985B41002803DA0020014605B0CB
:10063000F0BD0020012109050746864611E0644609
:100640001D46141BB54106D36546521BB341744683
:1006500007430C43A646CD07400849082843921893
:100660005B4105460D43EAD11046184313D060465E
:10067000194650407140084306D06046101AB341F5
:1006800006D20122002306E000220123DB0702E05C
:100690000122D2435310009874460105381C614171
:1006A000029C039D0019694100F09DF8BFE700001E
:1006B000FD0300004A0009030123090B1B05194330
:1006C0000A4B10B5520D9A4202DA0020014610BDC5
:1006D000064B34339A4203DC9A1A00F060F810BDDE
:1006E000034BD21800F04BF810BD0000FF030000D0
:1006F000CDFBFFFF10B5002904DB0124E4074042D5
:100700008C412146002B04DB1C460123DB075242AF
:10071000A341994200D1904210BD0000064C012532
:10072000064E05E0E36807CC2B430C3C9847103499
:10073000B442F7D3FFF770FD40A0000060A00000B6
:1007400070B50446002903D000202022012310E0C8
:10075000002801D00020C043C046C0460DE0254619
:10076000D5408D4205D30D469540641B1D469540EE
:1007700040191546521E002DF1DC214670BD10B502
:10078000202A04DB0146203A9140002010BD914010
:1007900020239C1A0346E3401943904010BD10B536
:1007A000202A04DB0846203AD040002110BD0B4629
:1007B000D340D0402024A21A91400843194610BDCE
:1007C00010B5202A06DBCB170846203A1041C11786
:1007D0000B4306E00B461341D0402024A21A91405F
:1007E0000843194610BD10B5002B08DA0024401C40
:1007F000614192185B411A4301D14008400010BD8D
:10080000F0B51FB482B005460C0003D0084603F0D3
:1008100089F802E003F086F8203002460090214675
:100820002846FFF7ACFF049B059A04460F46184381
:100830001143084314D0184610431BD000984021A0
:100840000A1A18460599FFF7AAFF05460E46009AB0
:1008500005990498FFF793FF084305D0012004E0B1
:100860002046394607B0F0BD0020C11705430E43AE
:100870002C43374300990E986305401A7905E40A22
:1008800000220C43FD0A0A3002D500200146E9E7A8
:100890000105101969410C9C0D9D00196941FFF774
:1008A000A2FFDFE784B00390029100200190FFE7F0
:1008B00001980299CA0F8918491088421ADAFFE78D
:1008C00003990298019A801A4018401E00786946E0
:1008D0000870039A019BD05C0299C91A8918491EB5
:1008E000087000980399019A8854FFE70198401C0A
:1008F0000190DDE704B0704780B588B0069005919F
:10090000049203930698059A0399009140212023AD
:1009100002F01CFE02900298002803D5FFE702981F
:10092000079010E00398049A00904021102302F0F1
:100930000DFE0298002803D5FFE70298079002E019
:1009400000200790FFE7079808B080BD83B00290B1
:1009500000200190009002991F2001400120884052
:100960000190074800900298800F8100009840187D
:100970000090019A009908681043086003B070471E
:100980000402004080B58EB00D900C91D0490868EB
:1009900001221204104308600D9850B9FFE7E74A9E
:1009A000116801200143116000F016FDE4480B902E
:1009B0000AE0F2490868042210430860102000F0A1
:1009C0000BFDDF480B90FFE70C985A49884200D98D
:1009D000A2E00C985849884200D29DE00C985949F1
:1009E00088420BD8FFE70C985349884206D3FFE7AB
:1009F000032008900C9880000C9013E00C9852494A
:100A000088420BD8FFE70C984D49884206D3FFE790
:100A1000012008900C9840000C9002E00020089003
:100A2000FFE7FFE703200A900020C14303910190F4
:100A30000290FFE70A98202853D8FFE70B980A99FD
:100A4000B0FBF1F0069006984049884244D3FFE796
:100A500006983F4988423FD8FFE702200990FFE708
:100A600009983C49884236D8FFE7069909984843D7
:100A70004000059005983849884227D3FFE705983C
:100A80002C49884222D8FFE705980C99884205D95D
:100A9000FFE705980C99401A009004E00C9805991E
:100AA000401A0090FFE70098049004980399884248
:100AB0000BD2FFE7049803900A98019009980290DE
:100AC000039808B9FFE706E0FFE7FFE7FFE70998AB
:100AD000401C0990C4E7FFE7FFE70A98401C0A9012
:100AE000A8E70D980899890308430199490240F243
:100AF0000022891A08430299891E08437449086034
:100B00000B9808994A1C01995143B0FBF1F00299E6
:100B100048434000079007E00D98084908436C4996
:100B2000086007480790FFE7042000F055FC07988D
:100B30000EB080BD00C2EB0B00366E010EC200008D
:100B4000006CDC02FF6BDC02FFD7B80580841E005E
:100B500000127A000102000000D8B80581B00090B0
:100B6000009A864908681043086001B07047C04683
:100B7000B0B592B0544907A83CC93CC03CC93CC080
:100B800052480190DB48006802210840009050481C
:100B90000068069006A88078C00720B1FFE74E499C
:100BA0000020086037E006A880780007002803D5F9
:100BB000FFE76348059002E061480590FFE706A85B
:100BC00080788007002804D5FFE70598424908602F
:100BD00020E006A80088810B01A840180078029048
:100BE00006983C490840801C0490069843F6006132
:100BF0000840400A401C0390059880080499484327
:100C00004000039A02995143B0FBF1F08000324951
:100C10000860FFE7FFE7BD48006807210840109023
:100C20001098012821D1FFE7009830B9FFE7B149BA
:100C30000868022210430860FFE7B64800684006D3
:100C4000002804D5FFE747F60050119003E048F272
:100C500000001190FFE7009830B9FFE7A549086848
:100C6000022290430860FFE70EE01098022804D1AA
:100C7000FFE719480068119005E01098810007A867
:100C800040581190FFE7FFE7554800680F210840E2
:100C9000401C0F9011980F99B0FBF1F1AE48016024
:100CA00001680E4A89180E4AB1FBF2F10D4A116033
:100CB000006812B0B0BC02BC8E46714672467346E4
:100CC000F4468EF300887447F8990000010202048C
:100CD00040020040FF0100000400002020A10700A6
:100CE00040420F000000002080B501F0ADFF9A489F
:100CF000006880BC02BC8E46714672467346F4465C
:100D00008EF300887447C04682B000200190EC4802
:100D10000068012108400090009818B1FFE7B94829
:100D2000019002E000200190FFE7019802B07146B7
:100D300072467346F4468EF3008874470002004002
:100D4000001BB70082B000200190DD48006802213E
:100D500008400090009820B1FFE748F200000190A1
:100D600002E000200190FFE7019802B07146724650
:100D70007346F4468EF300887447C0460002004074
:100D800087B006900020059004901021039108215F
:100D900002910421019100900698800A0006A8B1F2
:100DA000FFE706A841880C20014068464058C54925
:100DB000401804900498006806998A0AD2B28905FE
:100DC000C90E8A401040C8400590FFE7059807B05B
:100DD000714672467346F4468EF300887447C046E7
:100DE0002002004088B007900020069005900C215A
:100DF0000491082103910421029101903D4800686B
:100E000002210840009007983B49884218D1FFE72B
:100E1000009830B9FFE7374908680222104308609C
:100E2000FFE73C480068C0B2C0090690009830B99E
:100E3000FFE730490868022290430860FFE74FE06F
:100E400007982E49884206D1FFE731480068012102
:100E50000840069043E007982949884207D1FFE7F8
:100E60002B480068022108404008069036E00798A9
:100E70002449884208D1FFE72548006840F2001164
:100E80000840000A069028E007981F49884208D1C8
:100E9000FFE71F48006840F200210840400A069022
:100EA0001AE007980001400FA8B1FFE70798810EEC
:100EB0000C20014001A84058FA49401805900598B7
:100EC000006807990A01520FC901C90E8A401040F3
:100ED000C8400690FFE7FFE7FFE7FFE7FFE7FFE710
:100EE000069808B0714672467346F4468EF3008841
:100EF0007447C04608020040010000401000008016
:100F000011000080120000801300008010020040D9
:100F1000180200400011044080B501F095FEE2483F
:100F2000006880BC02BC8E46714672467346F44629
:100F30008EF300887447C04680B501F085FEDA481C
:100F4000006880BC02BC8E46714672467346F44609
:100F50008EF300887447C0460800002087B0002048
:100F600006902648009026480068059005A88078DD
:100F7000C00718B1FFE70020069035E005A880788B
:100F80000007002803D5FFE71E48049002E01D4833
:100F90000490FFE705A880788007002803D5FFE7C5
:100FA000049806901FE005A80088810B6846401849
:100FB00000780190059814490840801C039005981A
:100FC00043F600610840400A401C029004988008E3
:100FD000039948434000029A01995143B0FBF1F054
:100FE00080000690FFE7FFE7069807B0714672465B
:100FF0007346F4468EF300887447C046010202042B
:1010000040020040001BB700FF01000080B582B025
:101010000190A248006810210840009001982449DE
:10102000884203D3FFE72548019008E00198214951
:10103000884203D8FFE720480190FFE7FFE798497F
:101040000868042210430860102000F0C5F9E04948
:101050000868072210430860DC4908680F229043A3
:101060000860EC480068C00730B1FFE70199002034
:10107000FFF788FC01900BE001990120C004FFF705
:1010800081FC0190E3480068102108400090FFE7D0
:101090000220002100F018F8009830B9FFE78049DD
:1010A0000868042290430860FFE7019802B080BD01
:1010B00001D8B805FF356E0100366E0100D8B805BD
:1010C000000200402002004080B584B003900291ED
:1010D000D0480168102001400191714A1168042331
:1010E0001943116000F078F9B949086807221043E4
:1010F0000860C74800680090FFE76C480068000679
:10110000002807D5FFE70098401E009008B9FFE7C8
:1011100000E0F2E765490868032290430860BC4894
:1011200000680090FFE762480068C00738B1FFE739
:101130000098401E009008B9FFE700E0F3E75D4922
:101140000868042210430B22904308609F490868F6
:101150000F229043029A104308609D4908680722B5
:101160009043039A1043086001F06EFDF448006854
:101170000090FFE74D4800680006002807D5FFE70C
:101180000098401E009008B9FFE700E0F2E7EC4845
:101190000068494988420ED3FFE7E948006847499B
:1011A000884208D8FFE7414908680122104302221B
:1011B0009043086014E0E2480068414988420ED339
:1011C000FFE7DF4800683F49884208D8FFE7374912
:1011D000086802221043012290430860FFE7FFE7FE
:1011E000F74800683849884206D8FFE72F49086861
:1011F000032210430860FFE7F14800680090FFE712
:101200002B480068C00738B1FFE70098401E0090E7
:1012100008B9FFE700E0F3E7E94800682B49884296
:101220000ED3FFE7E64800682949884208D8FFE75F
:1012300020490868032210430C229043086014E000
:10124000DF480068234988420ED3FFE7DC48006886
:101250002149884208D8FFE716490868022210434E
:101260000D2290430860FFE7FFE7D54800681B495F
:10127000884208D8FFE70F490868012210430E2270
:1012800090430860FFE7019830B9FFE70449086818
:10129000042290430860FFE704B080BD5002004084
:1012A000000200401002004008000020F801004049
:1012B000FC0100404CC00040016CDC0200BD010597
:1012C00001093D00006CDC0200093D0080F0FA02DB
:1012D000BF68780440787D017FF0FA023F787D0195
:1012E0008EB00D900C910B9200200A9009900C2169
:1012F0000891082207920421069105901023049377
:101300000392029101902F4800680221084000904A
:101310000D982D4988421AD1FFE7009830B9FFE7B0
:1013200028490868022210430860FFE72949086835
:10133000802290430C9A10430860009830B9FFE770
:1013400020490868022290430860FFE738E00D98C2
:10135000800A0006B8B1FFE70DA841880C200140C3
:1013600001A84058194940180990099800680D9A39
:10137000910AC9B29205D20E914088430B99084355
:1013800009990860FFE70D980001400FB8B1FFE729
:101390000D98810E0C20014005A840580C494018BA
:1013A0000A900A9800680D9A1101490FD201D20ED5
:1013B000914088430C9908430A990860FFE7FFE7CA
:1013C0000EB07047080200400100004020020040BB
:1013D000100200400011044083B002907848006879
:1013E0004008019001200090FFE70A480068029938
:1013F0000840884209D0FFE70198401E019018B9C3
:10140000FFE70020009000E0EFE7009803B070478E
:10141000080000205002004080B5684800F03CF908
:1014200080BDC04680B584B00390029101920398BC
:101430000299019A01F048F904B080BD80B58AB0E4
:1014400008900791069208980490079803900C2042
:1014500001F072FB354936480860364A402010607A
:101460000868012210430860FFE70398012857DB52
:10147000FFE703983F2804DCFFE703982D49086045
:10148000FFE72D480068C003002848D5FFE704980F
:10149000006802900498001D04900398001F0390B8
:1014A0000398002803DCFFE700200390FFE7039880
:1014B00020B1FFE70298214908602FE01B49086826
:1014C00021221043086002981C4908603C480068CB
:1014D0000190FFE718480068C00750B1FFE7019886
:1014E000401E019020B9FFE70020C04309901AE098
:1014F000F0E700200590FFE705980F280DDCFFE7D7
:10150000059880000F4940580699059A9200885026
:10151000FFE70598401C0590EEE7FFE7FFE7A4E72B
:1015200000200990FFE709980AB080BD002303401E
:101530000006C0005023034004230340542303400B
:10154000080000200823034080B586B00490039172
:1015500002920C2001F0F0FA1848009006210322B4
:10156000002301F035FA00980499039A01F093FAE8
:101570000098052101F09FFA114800680190FFE7EB
:10158000104800688001800F50B9FFE70198401EA5
:10159000019020B9FFE70020C04305900BE0EFE782
:1015A00003200006074908600299044801F029FA5F
:1015B00000200590FFE7059806B080BD002003409D
:1015C000080000200420034080B584B00D20FFF700
:1015D000BDF900F039FC27480068C00600283FD15B
:1015E000FFE7264802F08EF9254802F08BF92548DE
:1015F00002F014FE4B2803D0FFE70020039035E0F3
:101600000D20FFF7A3F900F01FFC1F4A01920020F4
:1016100002901E49009100F0E5FC0099019A2032E9
:10162000012000F0DFFC0099019A4032022000F016
:10163000D9FC0099019A6032032000F0D3FC009994
:10164000019A8032042000F0CDFC019A0720104955
:1016500000F0C8FC0F4802F055F90298039005E02D
:10166000054802F04FF901200390FFE7039804B00A
:1016700080BDC04640500340509C0000829C00004A
:101680001A9C0000E41B0020789A00001406050054
:1016900004060500369C000081B000900098406868
:1016A0004002002807D5FFE70A4901200860009999
:1016B00080054860FFE7009840680002002807D5D1
:1016C000FFE70549012008600099C0054860FFE771
:1016D00001B07047901C00208C1C002010B5DCB0BD
:1016E000609C5F9C5E9C5A90599158925793002041
:1016F0000D905A98599901F0B3FD20B1FFE70020F1
:10170000C0430D90FFE70D9800B12DE25A98F949BA
:101710000A91401801F089FD0A9AF748006840F2E2
:10172000003140185A99891800F042FB5A9840F647
:1017300050010B91401801F078FD0B9A5A99012045
:1017400088505A98ED490C91401801F06EFD0C9AA2
:1017500060985A99891800F02BFB5A9840F20021A2
:1017600002F03AF800200E90FFE70E9811280FDCE7
:10177000FFE75A980E9989004018E04940580E99A1
:101780008A0033A98850FFE70E98401C0E90ECE7C2
:101790005A98F8490891401801F047FD089AF64810
:1017A000006840F2003140185A99891800F000FB97
:1017B0005A98F2490991401801F037FD099A589852
:1017C0005A99891800F0F4FA00200E90FFE70E985D
:1017D00011280EDCFFE70E98820033A880585A9932
:1017E000891840F650028850FFE70E98401C0E9072
:1017F000EDE75A9840F6002101F0EEFF00200E9030
:10180000FFE70E9811280FDCFFE75A980E99890020
:101810004018DA4940580E998A0045A98850FFE7D8
:101820000E98401C0E90ECE75A98D2490691401849
:1018300001F0FBFC069AD048006840F200314018E5
:101840005A99891800F0B4FA5A98CC49079140186F
:1018500001F0EBFC079A5F985A99891800F0A8FAF2
:1018600000200E90FFE70E9811280EDCFFE70E987F
:10187000820033A880585A99891840F6500288503F
:10188000FFE70E98401C0E90EDE75A9840F60021B5
:1018900001F0A2FF00200E90FFE70E9811280FDC48
:1018A000FFE75A980E9989004018B44940580E999C
:1018B0008A0033A98850FFE70E98401C0E90ECE791
:1018C0005A98599901F0CCFC002804D5FFE7002074
:1018D000C0435B904BE100200E90FFE70E9811286B
:1018E0000EDCFFE70E98820045A880585A998918A7
:1018F00040F600228850FFE70E98401C0E90EDE75E
:101900005A980021059101F067FF05980E90FFE7B6
:101910000E9811281ADCFFE75A980E998900401892
:10192000964940580E998A0021A988505A980E99D4
:101930008900401840F6500140580E998A000FA9BE
:101940008850FFE70E98401C0E90E1E75A9859998D
:1019500001F086FC5A9889490391401801F065FC12
:101960005A9840F650010491401801F05EFC039A29
:1019700057985A99891800F01BFA049A5E985A9958
:10198000891800F015FA00200E90FFE70E98112834
:101990000EDCFFE70E98820033A880585A99891808
:1019A00040F600228850FFE70E98401C0E90EDE7AD
:1019B0005A980021029101F00FFF02980E90FFE764
:1019C0000E9811281ADCFFE75A980E9989004018E2
:1019D0006A4940580E998A0045A988505A980E992C
:1019E0008900401840F6500140580E998A0033A9EA
:1019F0008850FFE70E98401C0E90E1E75A985999DD
:101A000001F02EFC00200E90FFE70E98112816DC46
:101A1000FFE70E98820045A880585A998918574ABE
:101A200088500E98820033A880585A99891840F639
:101A300050028850FFE70E98401C0E90E5E700200A
:101A40000E90FFE70E98112816DCFFE70E98820033
:101A500021A880585A9989184A4A88500E988200BD
:101A60000FA880585A99891840F6E0028850FFE77D
:101A70000E98401C0E90E5E75A9840F2004101F0A4
:101A8000ABFE00200E90FFE70E9811281ADCFFE74E
:101A90005A980E9989004018384940580E998A0082
:101AA00021A988505A980E998900401840F6500193
:101AB00040580E998A000FA98850FFE70E98401CE5
:101AC0000E90E1E75A982B490191401801F0ADFBC7
:101AD000019A2948006840F2003140185A99891843
:101AE00000F066F900200E90FFE70E9811281CDC2C
:101AF00006E0C046B8090000081E002008080000E3
:101B00000E98820021A880585A9989181B4A88503B
:101B10005A980E998900411840F6500200208850CA
:101B2000FFE70E98401C0E90DFE75A9841F2002123
:101B300001F052FE1048006840685A990F4A89180F
:101B40000F4A00F0C1FDFFE7FFE75F990C48FEF781
:101B5000D5FB40B1FFE7FFE7FFE7FFE7FFE7012025
:101B6000C0430D90FFE7FFE70D985B90FFE75B98A0
:101B70005CB010BDB8090000081E00200808000075
:101B80000C1E00209808000080B520480068012144
:101B90008904884239D0FFE700F0F6FF2949112077
:101BA000086079491A48086076490020086077493A
:101BB00001200860FFE77548006808B1FFE7FAE711
:101BC00059480068401C68B1FFE76E492220086050
:101BD0006E4901200860FFE76C48006808B1FFE724
:101BE000FAE7FFE7012081044F4A1160654A21218D
:101BF000116066490860FFE76448006808B1FFE7C4
:101C0000FAE7044901200860FFE780BD28F00240A0
:101C1000000821000800004080B582B0FEF719FBE3
:101C2000C1000748074A00920029019001D400989A
:101C300001900199086801221043086002B080BD3C
:101C400000C0005000C0004080B590B00E904C49DC
:101C500000200A900860FEF7FCFAC1002E48494AAD
:101C60000B9200290C9001D40B980C900A980C99B7
:101C700008600E980790FEF7ECFAC1002748424A28
:101C800008920029099001D40898099007980999A9
:101C90000860FEF7DEFAC10021483C4A059200299F
:101CA000069001D405980690069901200860CC485A
:101CB0000068C0080D90FFE7FEF7CBFAC100184896
:101CC000324A03920029049001D4039804900498A6
:101CD0000068C00768B1FFE70D98411E0D9100280C
:101CE00006DCFFE726490020C04308600F900FE0A4
:101CF000E2E7FEF7AEFAC1000A480B4A019200295A
:101D0000029001D401980290029800680F90FFE7BA
:101D10000F9810B080BDC0460CC0005004C00050E9
:101D200010C0005008C0005008C0004083B00190AF
:101D3000AB480068C00800901149002008601149B4
:101D40002E200860019810490860104901200860A1
:101D5000FFE70E48006868B1FFE70098411E009158
:101D6000002806DCFFE706490020C0430860029017
:101D700003E0EEE700200290FFE7029803B070470F
:101D8000941C00200CC0004004C0004010C0004063
:101D9000FFE7054800684004002804D4FFE7034833
:101DA0000068C0B27047F4E7180007500000075001
:101DB00080B58AB0099008910998FEF78BFA401E09
:101DC000069000200590FFE70698002839D4FFE729
:101DD000002003900490FFE7049900200729029057
:101DE0000CD8FFE7069901200022009200290190FB
:101DF00001DA0098019001980290FFE70298C0076D
:101E0000B8B1FFE709980699405C01F0E9F901468D
:101E100007A8017001780498800081400398084366
:101E200003900698401E0690FFE70498401C04901B
:101E3000D2E703980899059A531C0593920088509D
:101E4000C2E70AB080BD000082B0B4480068000656
:101E500000282DD4FFE7B44800680090FFE7AF48A2
:101E60000068400700280AD5FFE70098401E009050
:101E700020B9FFE70120C043019030E0EFE7A94916
:101E800040F201100860A84800680090FFE7A348EE
:101E90000068000600280AD4FFE70098401E009062
:101EA00020B9FFE70120C043019018E0EFE7FFE70A
:101EB0009D4800680090FFE79848006840070028A8
:101EC0000AD5FFE70098401E009020B9FFE70120E7
:101ED000C043019003E0EFE700200190FFE7019885
:101EE00002B070478BB009900891079206938B4817
:101EF00000684007002804D5FFE70020C0430A908F
:101F00006BE0099880070899890689094018844977
:101F1000086082490220086000200390049006981F
:101F20000590FFE77D490320086004987D490A6811
:101F300040F600431A4010430122104308607A48DB
:101F400000680090FFE775480068400700280AD540
:101F5000FFE70098401E009020B9FFE70020C04333
:101F60000A903AE0EFE7059801900198092803DB11
:101F7000FFE708200190FFE700200290FFE70298AA
:101F8000019988420FDAFFE70298800067494058BC
:101F90000799039A029BD21892008850FFE7029893
:101FA000401C0290EBE780200490059808380590CB
:101FB000039808300390FFE705980028B2DCFFE79C
:101FC000564800688007002804D5FFE70020C0437A
:101FD0000A9002E000200A90FFE70A980BB07047D1
:101FE0000800002010B58FB00D900C910B9207A93E
:101FF000082088814648099046480890464807903E
:10200000464800684007002804D5FFE70020C04389
:102010000E907AE00C980D998906890908430121F0
:10202000C90708433E4908600C980005000F01905D
:102030000198072804DBFFE70020C0430E9064E00E
:102040000198410007A8405A0690344902200860D0
:10205000002004900590FFE7069802900298092856
:1020600003DBFFE708200290FFE700200390FFE773
:102070000398029988420EDAFFE70B98049A0399B5
:102080005218920080588900284A8850FFE7039828
:10209000401C0390ECE72148032202600598214987
:1020A0000B6840F60044234018431043086080202A
:1020B00005900698083806900498083004901A484D
:1020C00000680090FFE715480068400700280AD51F
:1020D000FFE70098401E009020B9FFE70020C043B2
:1020E0000E9012E0EFE7FFE706980028B4DCFFE768
:1020F0000A4800688007002804D5FFE70020C04395
:102100000E9002E00D980E90FFE70E980FB010BDF4
:1021100008000800060007000400060008500340FD
:1021200004500340005003400800002020500340AA
:1021300083B00B4801900B4800900321029102A844
:102140000078094A106001981F229043074A1060E6
:10215000009808431C2188430549086003B0704774
:1021600080A00000E0A00000D8ED00E0DCED00E081
:10217000E0ED00E0B0B5F4B0694851906948509086
:1021800069484F9069484E900C20FEF7DFFBFFF73F
:1021900043FD0220072163AA05920823FFF7A2FE50
:1021A00005995AA82022FEF771F800207390FFE7E6
:1021B00073981F2805D8FFE7FFE77398401C7390BA
:1021C000F6E75B4956A80F22FEF760F800207390EF
:1021D000FFE773980E2805D8FFE7FFE77398401CC8
:1021E0007390F6E74EA8629000207390FFE7739813
:1021F0000F2805D8FFE7FFE77398401C7390F6E7B8
:1022000036A8629062984B49A83140220392FEF7AB
:102210003DF803200005FFF717FD52904648FFF7F1
:1022200013FD539061200004FFF70EFD54904348C6
:10223000FFF70AFD039B559062990A464032529877
:10224000C85452A80490C178D170817891704178B7
:102250005170629A4032C179D1718179917141791D
:10226000517153991171629A4032C17AD172817A57
:102270009172417A51725499117262994031C27BC4
:10228000CA73827B8A73407B48735598087362993E
:102290005022012088546298513056A90F22FDF730
:1022A000F5FF00207390FFE77398172805D8FFE724
:1022B000FFE77398401C7390F6E736A8602106AAE2
:1022C000019200F031FB01985AA94EAA16AB029375
:1022D000FEF712FB02996BA83CC93CC03CC93CC04C
:1022E000174801F00FFB174801F00CFB002073901A
:1022F000FFE7739807280DD8FFE77399739882005A
:102300006BA88258104801F0FDFAFFE77398401C53
:102310007390EEE70B4801F0F5FA74B0B0BDC0461B
:10232000424C333232333534746F6E4D4E75766FA6
:10233000789A0000981C002004003000080061001A
:10234000B39C0000E49D0000269E0000B0B5CCB018
:102350004990489147920020469049984021084072
:1023600080093F903F9868B1FFE749A8007840078F
:10237000002803D5FFE74798469002E0489846902A
:10238000FFE712E049A800784007002806D5FFE7DC
:10239000EFF389804A904A98469005E0EFF38880F1
:1023A0004B904B984690FFE7FFE746988169B3480A
:1023B00001F0A8FA469838B1FFE746988069429044
:1023C000429800884390FFE7AD4801F09BFA43999B
:1023D000AC4801F097FA3F9850B9FFE742A8C0789F
:1023E000C006002804D4FFE7A74801F08BFAF7E005
:1023F0004398A649884204D1FFE7AD4801F082FA2C
:10240000EDE04398000B052838D1FFE74398C0055D
:10241000400F3E9043988006400F3D90439807211F
:1024200008403C903C993E9A3D9BA04801F06AFAD6
:1024300046993D98800008583E9A92008958401865
:10244000419046983C9989004058409042980F909E
:102450004398109001059048904A119200291290DB
:1024600001D411981290109A0F99129B4098419C98
:10247000019400908A4801F045FAAFE04398400B80
:10248000032836D1FFE743984005C00E3B904398A0
:102490008006400F3D904398072108403C903C99AE
:1024A0003D9A3B9B804801F02DFA46983D99890062
:1024B00040583B994018419046983C9989004058B3
:1024C000409042980B9043980C9001057248734AD3
:1024D0000D9200290E9001D40D980E900C9A0B9934
:1024E0000E9B4098419C019400906D4801F00AFABF
:1024F00073E04398000B082836D1FFE74398400566
:10250000C00E3B9043988006400F3D9043980721B2
:1025100008403C903C993D9A3B9B624801F0F2F99F
:1025200046983D99890040583B99401841904698FB
:102530003C998900405840904298079043980890F1
:1025400001055548554A099200290A9001D4099875
:102550000A90089A07990A9B4098419C0194009020
:102560004F4801F0CFF937E04398000B09282ED1EE
:10257000FFE743A800783A9043984005400F3C900D
:102580003C993A9A434801F0BDF9469880693A99D6
:102590004018419046983C99890040584090429894
:1025A00003904398049001053B483C4A059200295A
:1025B000069001D405980690049A0399069B4098CA
:1025C000419C01940090364801F09CF903E03048AA
:1025D00001F098F9FFE7FFE7FFE7FFE7FFE7FFE715
:1025E0009848006844904498E8B3FFE731492EA822
:1025F0003CC93CC03CC93CC03CC93CC02E4919A8A0
:102600005422FDF743FE2D4913A81522FDF73EFE87
:1026100000204590FFE74598532823D8FFE74498CA
:102620004599C840C007C0B1FFE7459A910019A875
:10263000415813A80290805CA94A8258204801F0B2
:1026400061F902984599405CA449405881002EA840
:1026500041581C4801F056F904E0FFE74598401C3A
:102660004590D8E7FFE7FFE7469800680121084357
:1026700008B1FFE7F8E749984CB0B0BDB49F00003F
:10268000859E00002D9F0000DE9E0000ABBE000076
:10269000079F0000809F0000DF9F0000E39F000075
:1026A0009A9E0000449F0000639F0000999F0000D5
:1026B000BA9E0000904200003C420000244200000C
:1026C000C89F00001F9F000080B58AB00990089144
:1026D00007920799099A002088540999491E069182
:1026E0000590FFE70698002830D4FFE7002004900B
:1026F000FFE704990020072903900CD8FFE706990B
:102700000120002201920029029001DA0198029032
:1027100002980390FFE70398C00790B1FFE708987D
:10272000059989004058049900F0CCFE0799069A53
:1027300088540698401E0690FFE70498401C0490B9
:10274000D7E7FFE70598401C0590CBE70AB080BDAE
:10275000B0B5AAB036491EA83CC93CC03CC93CC073
:102760003CC93CC0334909A85422FDF78FFD3249CA
:1027700003A81522FDF78AFD3048006802900298F0
:1027800068B3FFE700200090FFE70098532825D8A2
:10279000FFE702980099C840C007D0B1FFE7009951
:1027A00003A8415C4E4A89580191009B9A0009A9EF
:1027B0008958019AC05C494BC05883001EA8C35871
:1027C0001F4801F09FF80099012088401B490860CC
:1027D00004E0FFE70098401C0090D6E7FFE71948A7
:1027E00000680290029800B3FFE700200090FFE726
:1027F0000098532818D8FFE702980099C840C007EE
:1028000068B1FFE70098810009A841580E4801F01F
:1028100079F80099012088400A49086004E0FFE740
:102820000098401C0090E3E7FFE72AB0B0BDC04627
:102830002C430000D8420000C042000030F00240AB
:10284000429B000030F10240189B000080B582B02E
:102850002249002000900860214908602149086051
:1028600001210904204A11602049086020490860BC
:102870002049086020490860204908602049086014
:102880002049086020490860204908602049086004
:10289000204908600F200190FFE7019802280CDB17
:1028A000FFE70198012282401E4908681043086032
:1028B000FFE70198401E0190EFE7174908681022D2
:1028C000104308600020C0431449086014490860A0
:1028D000632000F04DFC02B080BDC04600F0024015
:1028E00004F0024008F002400CF0024010F00240F8
:1028F00014F0024018F0024040F1024044F102405E
:1029000048F102404CF1024050F1024054F10240C3
:1029100058F102405CF1024084E300E02CF00240F8
:102920002CF1024024F0024080B596B0149013912F
:102930001292D14810902049204808601498204AEB
:10294000106013981F4A10600868E02290430860E6
:102950000868B12210430860FFE71B480068C00701
:1029600058B1FFE71098411E1091002804DCFFE7E2
:102970000020C04315901CE0EFE700201190FFE716
:1029800011980F280DDCFFE7119880000F4940587F
:1029900011998A0069468850FFE71198401C1190F0
:1029A000EEE7129869464022FDF770FC0020159072
:1029B000FFE7159816B080BD002303400006C00055
:1029C0004C230340502303400423034008230340C7
:1029D00084B0039002910192009302980002019941
:1029E00089050843039940F200328850009830B1BD
:1029F000FFE70098039940F248328850FFE704B09F
:102A0000704785B004900391049840F2003140581B
:102A100040F200710840000A0290029818B9FFE7DE
:102A2000052001901AE00298052803D1FFE707204E
:102A3000019012E00298042803D1FFE708200190DA
:102A40000AE00298072803D1FFE70C20019002E07A
:102A500010200190FFE7FFE7FFE7FFE7049840F24F
:102A600008314018009000200290FFE70298019979
:102A700088420ED2FFE7009800680399029A9200FC
:102A800088500098001D0090FFE70298401C0290BB
:102A9000ECE705B0704783B0029001910092019875
:102AA000029940F24C3288500098029940F250321C
:102AB000885003B0704782B001900091019940F2B4
:102AC00000328858E02398438850009840010199CB
:102AD0008B58184301231843885002B0704783B0C5
:102AE000029001910092002003B0704780B582B03F
:102AF0000420FEF733F81020FEF76EFC0B48FEF7BB
:102B000085FA0B480190FDF721FF01980321090484
:102B10000022FEF7E5FB07490868FF2212069043F2
:102B2000772212068018086002B080BD00D8B80570
:102B3000103D006F3000004010B583B002900020BF
:102B400001900090029B0E4A1340012001469940DB
:102B5000019102A9C9780B4BC9180091019C009BF7
:102B6000196821431960029911408840C0430190BF
:102B7000019A009908681040086003B010BDC04673
:102B8000FFFFFF000800004081B019480090FFE7F8
:102B90005149592008601620086088200860009874
:102BA000401E009008B9FFE705E0FFE74A480068CB
:102BB0000028EDD0FFE701B07047C04681B00C4857
:102BC0000090FFE7444959200860162008608820DB
:102BD00008600098401E009008B9FFE705E0FFE795
:102BE0003D4800680028EDD0FFE701B07047C046BF
:102BF000001BB70080B582B00190019800F002F888
:102C000002B080BD81B00090684600780A280CD1DF
:102C1000FFE7FFE70B4800680002002801D5FFE747
:102C2000F8E7E1490D200860FFE7FFE70548006885
:102C30000002002801D5FFE7F8E70098DA490860AC
:102C400001B070471800075080B507F031FA084905
:102C5000086007F029FA0146064801600068064945
:102C600040180649B0FBF1F00549086080BDC04638
:102C7000040000200800002020A1070040420F00AF
:102C80000000002080B5FDF7E4FAC000002818D449
:102C9000FFE7FFE7104959200860162008608820E8
:102CA0000860FFE70C4800680028F3D0FFE70B49F5
:102CB00041F2000008600A4908680A4A10430860A7
:102CC000FFE709480949086000F012F8FFF7BEFD68
:102CD000FEF75AFF80BDC04600010040F4010040ED
:102CE000040200400040F0FF0000000008ED00E09A
:102CF00080B5124B04201860114A12481060124926
:102D000012480860062018601148106011480860D9
:102D1000072018600520000710600F4808600F4961
:102D2000012008600E4908680822904308600D4998
:102D30000D480860FFF7FCF980BDC046D8ED00E003
:102D4000DCED00E000000410E0ED00E0E1FF0F101A
:102D500000800030E1FF0430E1FFFF5FD0ED00E0D4
:102D600010ED00E00CED00E00000FA0580B504482D
:102D7000FFF7E2FEE12041028B4800F003F880BD3E
:102D800010000004B0B594B0139012917F4908A8C8
:102D90003CC93CC03CC93CC0002007901398069039
:102DA0007B49884237D0FFE706987A49884245D068
:102DB000FFE706987849884253D0FFE7069877499D
:102DC000884261D0FFE70698754988426FD0FFE7D7
:102DD0000698744988427DD0FFE706987249884278
:102DE00019D0FFE706987149884227D0FFE7069877
:102DF0006F49884235D0FFE706986E49884243D034
:102E0000FFE706986C49884251D0FFE706986B4966
:102E100088425FD071E06F48059007F04DF9014698
:102E20000598119107F04CF910901198042804D1DD
:102E3000FFE707F031F90C90FFE75FE0644804908A
:102E400007F03AF901460498119107F039F910900A
:102E50001198042804D1FFE707F022F90C90FFE74E
:102E60004CE05A48039007F027F901460398119166
:102E700007F026F910901198042804D1FFE707F015
:102E80000BF90C90FFE739E04F48029007F014F976
:102E900001460298119107F013F910901198042837
:102EA00004D1FFE707F0FCF80C90FFE726E0454867
:102EB000019007F001F901460198119107F000F91E
:102EC00010901198042804D1FFE707F0E5F80C9062
:102ED000FFE713E03A48009007F0EEF8014600984B
:102EE000119107F0EDF810901198042804D1FFE734
:102EF00007F0D6F80C90FFE700E045E013990020BA
:102F0000086313990320C86013998868324A1040F7
:102F100088601198012807D1FFE707F0C9F81199D7
:102F20008A0008A98850FFE7129868B3FFE7119854
:102F3000810008A840581099491CB0FBF1F0129983
:102F40004A088018B0FBF1F0801E079007A840885F
:102F500090B1FFE71198810008A840581099491CCA
:102F6000B0FBF1F01299CA008018B0FBF1F0000933
:102F7000801E1399486206E0079803210907084359
:102F800013994862FFE7FFE714B0B0BD189A00003C
:102F900000000740001007400020074000300740B5
:102FA0000040074000500740000007500010075045
:102FB00000200750003007500040075000500750D5
:102FC000953DCC7F143D8C7F933CCC6F123C8C6F35
:102FD000913D406F103D006F0FFFF0FFF0B5FFB067
:102FE000D8B0D590D4910C20FDF7B0FC472000F06C
:102FF000D3F8D598D390D398D290E820D190D29896
:10300000D199C1AAFEF7A0FA20B1FFE70020C04382
:10301000D690A6E0C1A804900146024678CA78C1BD
:1030200078CA78C178CA78C178CA78C14021FDF7DA
:1030300039FC049980208FAA0992FEF7F3F9D399FD
:10304000B0A8079044220592FDF720F9059907984A
:10305000FDF728FC0799832006906EAA0A92FEF7D6
:10306000E1F9059A0798D3994431FDF70FF90599CD
:103070000798FDF717FC069807994DAA0892FEF7E6
:10308000D1F9059A0798D399E831FDF7FFF805992A
:103090000798FDF707FC069807992CAC2246FEF727
:1030A000C1F9059A0798D39940F22C13C918FDF776
:1030B000EDF805990798FDF7F5FB069807990BAD14
:1030C0002A46FEF7AFF90899099A0A9B274806682D
:1030D0000327BF053E430660029501940091042139
:1030E000FEF7FCFA002804D5FFE70020C043D69085
:1030F00037E0D3990846903090228A5C41780902E3
:1031000089188278C0780002801800044018D29094
:10311000D3990846943094228A5C41780902891830
:103120008278C0780002801800044018D190D298AC
:10313000D199C1AAFEF782F920B1FFE70020C04370
:10314000D6900EE0D398A830C1A94022FDF7C9F867
:1031500020B1FFE70020C043D69002E00020D690C7
:10316000FFE7D6987FB058B0F0BDC04600200340BE
:1031700081B00090009800280BD4FFE700991F2031
:103180000A46024001209040490989000C4A8850B3
:10319000FFE701B07047C04681B00090009800285A
:1031A0000BD4FFE700991F200A46024001209040FF
:1031B00049098900024A8850FFE701B07047C046BC
:1031C00000E100E0BFF34F8F034904480860BFF3FC
:1031D0004F8FFFE700BFFDE70CED00E00400FA05AC
:1031E00082B00146684601700078392805DCFFE7A7
:1031F0000098303801A9087013E0684600787A28F2
:103200000ADCFFE768460078612805DBFFE70098E5
:10321000573801A9087004E00098373801A90870F0
:10322000FFE701A8007802B0704782B0019000204B
:103230000090FFE7009811280ADCFFE70199009849
:10324000820000208850FFE70098401C0090F1E7C2
:1032500002B0704783B002900191009203B07047B2
:1032600070B588B00790069100200490069800F091
:1032700039F9014680480160006830B9FFE7FFE78F
:10328000FFE70020C0430490FFE7049800B1E9E0A5
:1032900000200590FFE70598112833DCFFE7079829
:1032A000059989004118754A002088500799059AA8
:1032B0009200891840F6701288500799059A92007A
:1032C00089186F4A88500799059A9200891840F624
:1032D000500288500799059A920089186F4A8850C1
:1032E0000799059A9200891840F6E00288500799DC
:1032F000059A92008918674A8850FFE70598401C94
:103300000590C8E75C4803900068083007995B4A5D
:103310008918FEF74DFD039800689830079940F62C
:1033200070128918FEF744FD0398006840F22811D6
:1033300040180799524A8918FEF73AFD0398006829
:1033400040F2B8114018079940F650028918FEF76C
:103350002FFDFFE7FFE707984849411849480A222F
:103360000292FFF777FF029A079840F67011411812
:103370004548FFF76FFF029A0798414941184348B3
:10338000FFF768FF029A079840F65001411840483D
:10339000FFF760FF3848006840F2C031405801280C
:1033A00054D1FFE707983B4A0192012383503248EA
:1033B000016840F2B0340959CC17E40E0C191F25EE
:1033C000ED4326462E40891B1E468E400799641108
:1033D000A4000C19A1583143A150016840F2B43443
:1033E0000959CC17E40E0C1926462E40891B1E469F
:1033F0008E4007996411A4000C19A1583143A150C3
:10340000016840F2B8340959CC17E40E0C1926466D
:103410002E40891B1E468E4007996411A4000C198A
:10342000A1583143A150006840F2BC314058C11747
:10343000C90E41180C462C40001B834007984911C7
:10344000890041188858184388500AE00A480068E3
:1034500040F24C21401807990E4A8918FEF7A8FC43
:10346000FFE7FFE707980B4941180B480A22FFF7CF
:10347000F1FE049808B070BD081E00202809000065
:10348000080800000BA000001CA00000E79F00003F
:10349000F99F0000B80900002DA000009808000066
:1034A00080B582B00190FEF773FC02B080BD80B59C
:1034B00082B0019000910198FFF79CFB019802B047
:1034C00080BD000082B001900091019900988000B9
:1034D000C1400F2001400248405C02B07047C04626
:1034E0000C00002080B584B0039000200190029071
:1034F000FFE70298162821D8FFE70398029940F2C7
:10350000C4324A430F49895888420ED1FFE70298D6
:1035100040F2C432114641430A4841180A4800901B
:10352000FCF7B4FE00980190FFE7019808B1FFE7AF
:1035300004E0FFE70298401C0290DAE7019804B02B
:1035400080BDC0465C4300002018002010B5AAB022
:103550002C9C289027912692259305A801908021E4
:10356000FCF7ADFE0198039000200490FFE704985B
:10357000279988420AD2FFE72898049A805C039929
:103580008854FFE70498401C0490F0E70020049062
:10359000FFE70498259988420CD2FFE72698049B00
:1035A000C05C0399279AD2188854FFE70498401CFE
:1035B0000490EEE71F492048086027981F4A1060D2
:1035C0001F4A05A810602798259A80181D4A106088
:1035D0000868A12210430860C84800680290FFE70D
:1035E00019480068C00750B1FFE70298401E0290DA
:1035F00020B9FFE70020C043299017E0F0E7002042
:103600000490FFE704980F280DDCFFE70498800082
:103610000E4940582C99049A92008850FFE704986C
:10362000401C0490EEE700202990FFE729982AB07B
:1036300010BDC04600230340000EC00048230340D5
:103640004C2303405023034004230340082303403A
:1036500080B5A4B000202290FFF7B0FAFFF746FA39
:10366000FFF784FBA54801684C4802684C4800F00D
:1036700049F94C4800F046F94B4800F043F94B48F3
:1036800000F040F9FDF7A0FF01282AD1FFE70D2047
:10369000FDF75CF9FEF7D8FB0021069117AA082375
:1036A0000846FEF71FFC424800F02CF9414800F0A4
:1036B00029F906981F90FFE71F9807280DD8FFE704
:1036C0001F991F98820017A88258424800F01AF9E3
:1036D000FFE71F98401C1F90EEE7364800F012F9F4
:1036E000FFE7354805900721C903049140F27012A5
:1036F000FCF7CCFD04990598FFF770FC401C20B93D
:10370000FFE7334800F0FEF845E02B489021425C8B
:1037100090304178090289188278C07800028018B8
:10372000000440182190254800F0ECF8FEF722FD37
:10373000FFE7234800F0E6F8704800682090FFE7B4
:1037400020480068012109070840000F38B9FFE749
:103750002098401E209008B9FFE700E0F0E7012024
:1037600001902390239880F31088FCF772FDC1002C
:103770001548164A02920029039001D4029803903A
:10378000019A03990868104308602198FEF7CEFA61
:10379000FFF718FDFFE7FFE7FEE7C04628F002400D
:1037A0000C9D0000399D0000369E0000CA9B000061
:1037B000DA9C0000E49D0000981C0020C39D0000DE
:1037C000889D00001800075000C0005000C0004055
:1037D000A49D0000269E000080B586B00490039151
:1037E000039840F2006108400290029840F20021E4
:1037F000884207D1FFE7049940F6000240F200102A
:1038000088502BE03948006840F2C0314058012808
:1038100006D1FFE7049940F600020020885006E038
:10382000049940F6000240F200108850FFE7029829
:1038300098B9FFE7049940F60002885844F2000363
:10384000184388502948006840F200314018049914
:10385000274A8918FEF7ACFAFFE7FFE72549002061
:103860000860254908602148006840F2B03140589E
:10387000800503990843049940F600028B581843C9
:103880000123184388501D4800680190FFE71A483B
:10389000006878B9FFE70198411E0191012804DB17
:1038A000FFE71448006820B1FFE70020C0430590FF
:1038B00018E0ECE7114800680190FFE70498104910
:1038C0004058C00758B1FFE70198411E01910028F8
:1038D00004DCFFE70020C043059003E0EEE7002092
:1038E0000590FFE7059806B080BDC046081E002081
:1038F000980800008C1C0020901C0020080000206C
:10390000040800000FB410B503A9044B044A029840
:1039100000F0E8F810BC08BC04B01847AF34000051
:10392000381C00202021020C01D010211046020A70
:1039300001D010460839020901D01046091F82083B
:1039400001D01046891E420801D0881E7047081A0F
:10395000704702E008C8121F08C1002AFAD1704758
:103960007047002001E001C1121F002AFBD17047FF
:10397000F0B51FB486B00998089A030D00210243E0
:1039800014D05148514A1818504305141198012871
:1039900010981AD0281A401C00264D4F4D49009609
:1039A00001910490002812DA444211E01198012498
:1039B00049A3012801D11098C1430698119A846047
:1039C0000360C26041600BB0F0BD4042E4E70446D2
:1039D000210500203F4A001C51410391029012E052
:1039E000E00707D032463B4601990098FCF782FD7C
:1039F0000191009032463B4610461946FCF77AFD8D
:103A000006460F466410002CEAD10498039B002858
:103A1000029A0999089806DAFCF76CFD019B009A56
:103A2000FCF768FD05E0FCF7CDFD019B009AFCF773
:103A3000C9FD04460E460022284BFCF75BFE03D866
:103A40000020C043014607E00022254B20463146B6
:103A5000FCF79EFCFCF72EFE102409E0002C0ADB8C
:103A60000A220023FCF75DFC079B30321A55641EC6
:103A700002460A43F2D11122641C079B121B1C1937
:103A8000119B012B03D0012308430ED10AE0084308
:103A900004D0112010900020119077E71098151A8B
:103AA0006D1E0BE01098824202DD00236D1C03E0C6
:103AB000824201DA00236D1E002BEED00698119988
:103AC0008260C16030C07EE701FCFFFF104D000046
:103AD000000014400000F03F300000000000F04300
:103AE0000000E03FFFB597B00646002518E2252804
:103AF00077D100242746FD49049400E00443761C56
:103B000032780120203A90400842F7D130782A28B4
:103B10000ED00222307801463039092916D804998E
:103B20000A235943303940181443761C0490F1E7B6
:103B3000189802C804911890002904DA0120400363
:103B400004434842049002200443761C30782E2817
:103B500014D1042004437078761C2A2809D11898BF
:103B6000761C80C8189009E00A214F43303FC719DE
:103B7000761C3078014630390929F5D930786C281F
:103B800010D006DC4C281AD068280ED06A2817D12D
:103B900004E0742813D07A2812D110E001204005E7
:103BA00004430CE00121090501E0032109050C4350
:103BB0007178814203D1012000052418761C761CFF
:103BC0003078119066280BD013DC58287DD009DCA2
:103BD00000287BD04528F6D04628F4D047281AD1B3
:103BE000A5E118E0632835D0642870D0652812D18B
:103BF0009DE170286CD008DC6728F1D069287BD063
:103C00006E280DD06F2806D1BAE073282ED0752803
:103C100071D0782859D01A9A199990476D1C7EE175
:103C20006002400F022809D003280DD004281898FC
:103C300001680DD00D60001D189070E11898EA170A
:103C400001680D604A60F6E7189801680D80F2E798
:103C50000D70F0E718986A4601781172001D1890EF
:103C60000020507202A80090012005E0189802C8B8
:103C7000189000200091C04361070DD5002101E09C
:103C80000199491C0191B94212DA8142F8DB009A8C
:103C9000515C0029F4D10BE0002101E00199491C9D
:103CA00001918142FADB019A0099895C0029F5D1E2
:103CB000019904981A9B471A21463846199A00F030
:103CC00097FA0199401945180BE04FE02CE113E0F9
:103CD0004EE0009800990078491C00911A9A1999B1
:103CE00090470198401E0190401CF2D12146384671
:103CF0001A9B199A10E137E00A20002100900191E7
:103D00006002410F022907D0189A01CA1892C217FF
:103D10009446032908D00AE01898C01DC108C900BC
:103D200005C91891944607E000B2C21794460429C9
:103D300002D140B2C1178C4600226146944506DA92
:103D40000A460021404291418C462D2102E0210586
:103D500004D52B216A461173012103E0E10701D04C
:103D60002021F7E7029155E00A200AE0102008E040
:103D7000102000900021042004430191082703E053
:103D800008200021019100906002410F022907D014
:103D9000189A01CA189200229446032908D008E014
:103DA0001898C01DC108C90005C91891944603E0C0
:103DB00080B2042900D1C0B200210291210729D587
:103DC0001199702906D0009A1021019B4A401A438C
:103DD00005D00EE040216A461173012108E06146DA
:103DE000014306D030216A461173119951730221A3
:103DF0000291009A0821019B4A401A430AD1614668
:103E0000014301D1610705D530216A4611730121B3
:103E10007F1E02911199582904D035A10E910DA948
:103E20000D910DE037A1F9E76146019B009AFCF77F
:103E300078FA0E9B8C469B5C0D9A521E0D92137065
:103E400061460143F0D10D9805A9081A2030019070
:103E5000600703D501200004844300E00127019896
:103E6000874201DD381A00E00020019900904118D6
:103E7000029809180498401A0490E00306D42146D9
:103E80001A9B199A049800F0B3F94519002706E027
:103E900003A81A9AC05D199990476D1C7F1C02985F
:103EA0008742F5DBE0030CD521461A9B199A04984A
:103EB00000F09EF9451904E01A9A302019999047AC
:103EC0006D1C0099481E00900029F5DC08E00D9853
:103ED0000D990078491C0D911A9A199990476D1CFB
:103EE0000199481E01900029F1DC63E109280100D5
:103EF0003031323334353637383961626364656660
:103F00000000000030313233343536373839414221
:103F1000434445460000000000F05AF94519761C5C
:103F20003078002800D0E2E528461BB0F0BD6007DD
:103F300000D406271898C01DC108C90048680A683F
:103F40000831C30FDB071891190001D09CA108E0CC
:103F5000210501D59BA104E0E10701D09AA100E071
:103F60009AA1430011985B08109165280CD006DCDB
:103F7000452809D046281DD0472841D141E0662870
:103F800018D067283CD13CE00021112F01DB112023
:103F900000E0781C0191009008A911A8FFF7E8FC47
:103FA000139905910021119A15927F1C129801977F
:103FB000009150E00120C00703900120019008A962
:103FC000009711A8FFF7D4FC139A149905920022C8
:103FD000119B009212981593059A0192002901D025
:103FE000104602E0791C40180190381A01D501985A
:103FF00004E04042401E0090781C0190C01B0290DB
:1040000043E0012F00DA01270021112F01DD1120EB
:1040100000E038460191009008A911A8FFF7A8FC1C
:1040200013990591119A0021129815920091019708
:1040300021070CD40599B94201DB019900E00191F7
:10404000012904DD159A491E515C302906D0B84279
:1040500001DA011D05DA0121029115E00199491EDD
:10406000EDE7002805DC0099411800910199091A33
:1040700003E0019A411C914200DD01910099401A30
:10408000401C02900120C0070390200706D402992B
:104090000198814202DB0020C04302900020694663
:1040A000C87707AF012103980337C907884224D096
:1040B000022011902B201290039800280CDA404225
:1040C00003902D20129007E00A210398FCF738FB9B
:1040D00030317F1E039039701199481E11900029CC
:1040E000F2DC03980028EFD1791E1298087030781E
:1040F000202108404530BF1E387006A8C01BC01DD7
:10410000039010980078002800D0012001994118F0
:104110000298C0170918039809180498401A401EFD
:104120000490E00306D421461A9B199A049800F0E3
:104130005FF8451910980078002803D01A9A199949
:1041400090476D1CE00324D521461A9B199A0498C8
:1041500000F04EF845191CE00098002807DB009994
:104160000598884203DD1598405C199901E019997A
:1041700030201A9A904700986D1C401C00900298BD
:10418000401E0290002804D11A9A2E2019999047B7
:104190006D1C0199481E01900029DDDC05E038788E
:1041A0001A9A7F1C199990476D1C0399481E039019
:1041B0000029F4DC21461A9B199A0498ACE6000009
:1041C0002D0000002B000000200000000000000077
:1041D000F8B5044600251E461746880404D405E0B9
:1041E00039462020B0476D1C641EF9D52846F8BD1D
:1041F000FFB50446002581B01E46C80301D530270F
:1042000000E02027880404D505E038460399B0472C
:104210006D1C641EF9D5284605B0F0BD10B5FFF73A
:104220003FF910BD343C0000444C545C6400747C85
:10423000848C949CA4ACB4BCC4000000729B0000AD
:10424000889B00000000000000000000B19B0000FF
:10425000A69B00009B9B0000979B0000779B0000A3
:10426000000000006C9B0000829B00007C9B000013
:104270008D9B0000939B0000A09B0000C29B000050
:10428000B99B0000BD9B0000B69B0000AA9B0000EC
:10429000C69B000000000000000000006C9B0000B6
:1042A000779B0000BD9B00009B9B0000000000006E
:1042B000000000000000000000000000829B0000E1
:1042C000343C0000444C545C6400747C848C949CAA
:1042D000A4ACB4BCC4000000729B0000889B00002A
:1042E0000000000000000000B19B0000A69B000041
:1042F0009B9B0000979B0000779B00000000000044
:104300006C9B0000829B00007C9B00008D9B00004A
:10431000939B0000A09B0000C29B0000B99B000083
:10432000BD9B0000B69B0000AA9B0000C69B00003E
:1043300000000000000000006C9B0000779B000064
:10434000BD9B00009B9B00000000000000000000DF
:104350000000000000000000829B00000000000040
:1043600030000000464646464646464646464646D5
:1043700046464646464646464646464646464646DD
:1043800046464645464646464646464646464646CE
:104390004646464300000000000000000000000008
:1043A000000000000000000000000000000000000D
:1043B00000000000000000000000000000000000FD
:1043C00000000000000000000000000000000000ED
:1043D00000000000000000000000000000000000DD
:1043E00000000000000000000000000000000000CD
:1043F00000000000363432313035313965353963EB
:10440000383065373066613765396162373232344A
:1044100033303439666562386465656363313436D8
:10442000623962310000000000000000000000005E
:10443000000000000000000000000000000000007C
:10444000000000000000000000000000000000006C
:10445000000000000000000000000000000000005C
:10446000000000000000000000000000000000004C
:10447000000000000000000000000000000000003C
:104480000000000031383864613830656230333004
:104490003930663637636266323065623433613193
:1044A0003838303066346666306166643832666645
:1044B0003130313200000000000000000000000038
:1044C00000000000000000000000000000000000EC
:1044D00000000000000000000000000000000000DC
:1044E00000000000000000000000000000000000CC
:1044F00000000000000000000000000000000000BC
:1045000000000000000000000000000000000000AB
:104510000000000030373139326239356666633861
:104520006461373836333130313165643662323464
:10453000636464353733663937376131316537390C
:10454000343831310000000000000000000000009D
:10455000000000000000000000000000000000005B
:10456000000000000000000000000000000000004B
:10457000000000000000000000000000000000003B
:10458000000000000000000000000000000000002B
:10459000000000000000000000000000000000001B
:1045A000000000003A0000004646464646464646A1
:1045B000464646464646464646464646464646469B
:1045C000464646464646464546464646464646468C
:1045D00046464646464646460000000000000000AB
:1045E00000000000000000000000000000000000CB
:1045F00000000000000000000000000000000000BB
:1046000000000000000000000000000000000000AA
:10461000000000000000000000000000000000009A
:10462000000000000000000000000000000000008A
:10463000000000000000000000000000000000007A
:10464000000000000000000000000000000000006A
:1046500000000000000000003A0000004646464608
:1046600046464646464646464646464646464646EA
:104670004646464639394445463833363134364263
:104680004339423142344432323833310000000081
:10469000000000000000000000000000000000001A
:1046A000000000000000000000000000000000000A
:1046B00000000000000000000000000000000000FA
:1046C00000000000000000000000000000000000EA
:1046D00000000000000000000000000000000000DA
:1046E00000000000000000000000000000000000CA
:1046F00000000000000000000000000000000000BA
:10470000000000000000000000000000C0000000E9
:10471000070000000200000001000000000000008F
:104720000100000038000000464646464646464620
:104730004646464646464646464646464646464619
:10474000464646464646464546464646464646460A
:1047500046464646464646464646464646464645FA
:104760000000000000000000000000000000000049
:104770000000000000000000000000000000000039
:104780000000000000000000000000000000000029
:104790000000000000000000000000000000000019
:1047A0000000000000000000000000000000000009
:1047B0000000000000000000623430353061383500
:1047C00030633034623361626635343133323536CA
:1047D000353034346230623764376266643862611F
:1047E00032373062333934333233353566666234CA
:1047F00000000000000000000000000000000000B9
:1048000000000000000000000000000000000000A8
:104810000000000000000000000000000000000098
:104820000000000000000000000000000000000088
:104830000000000000000000000000000000000078
:1048400000000000000000006237306530636264E1
:1048500036626234626637663332313339306239F8
:10486000346130336331643335366332313132325F
:104870003334333238306436313135633164323178
:104880000000000000000000000000000000000028
:104890000000000000000000000000000000000018
:1048A0000000000000000000000000000000000008
:1048B00000000000000000000000000000000000F8
:1048C00000000000000000000000000000000000E8
:1048D00000000000000000006264333736333838CF
:1048E0006235663732336662346332326466653607
:1048F00063643433373561303561303734373634BB
:1049000034346435383139393835303037653334FB
:104910000000000000000000000000000000000097
:104920000000000000000000000000000000000087
:104930000000000000000000000000000000000077
:104940000000000000000000000000000000000067
:104950000000000000000000000000000000000057
:1049600000000000000000004600000046464646E9
:1049700046464646464646464646464646464646D7
:10498000464646464646464646464646303030301F
:104990003030303030303030303030303030303017
:1049A0003030303100000000000000000000000046
:1049B00000000000000000000000000000000000F7
:1049C00000000000000000000000000000000000E7
:1049D00000000000000000000000000000000000D7
:1049E00000000000000000000000000000000000C7
:1049F00000000000000000000000000000000000B7
:104A000000000000000000000000000000000000A6
:104A10000000000000000000000000004600000050
:104A20004646464646464646464646464646464626
:104A30004646464646464646464646463136413254
:104A400045304238463033453133444432393435C9
:104A5000354335433241334400000000000000007C
:104A60000000000000000000000000000000000046
:104A70000000000000000000000000000000000036
:104A80000000000000000000000000000000000026
:104A90000000000000000000000000000000000016
:104AA0000000000000000000000000000000000006
:104AB00000000000000000000000000000000000F6
:104AC00000000000000000000000000000000000E6
:104AD000E0000000090000000800000003000000E2
:104AE000000000000200000040000000464646466C
:104AF000464646463030303030303031303030305D
:104B000030303030303030303030303030303030A5
:104B1000303030304646464646464646464646468D
:104B20004646464646464646464646430000000040
:104B30000000000000000000000000000000000075
:104B40000000000000000000000000000000000065
:104B50000000000000000000000000000000000055
:104B60000000000000000000000000000000000045
:104B70000000000000000000000000003561633606
:104B80003335643861613361393365376233656267
:104B900062643535373639383836626336353164D4
:104BA0003036623063633533623066363362636554
:104BB00033633365323764323630346200000000CC
:104BC00000000000000000000000000000000000E5
:104BD00000000000000000000000000000000000D5
:104BE00000000000000000000000000000000000C5
:104BF00000000000000000000000000000000000B5
:104C000000000000000000000000000036623137A4
:104C10006431663265313263343234376638626308
:104C20006536653536336134343066323737303384
:104C300037643831326465623333613066346131F0
:104C4000333934356438393863323936000000007E
:104C50000000000000000000000000000000000054
:104C60000000000000000000000000000000000044
:104C70000000000000000000000000000000000034
:104C80000000000000000000000000000000000024
:104C900000000000000000000000000034666533E2
:104CA0003432653266653161376639623865653739
:104CB0006562346137633066396531363262636507
:104CC0003333353736623331356563656362623657
:104CD00034303638333762663531663500000000CF
:104CE00000000000000000000000000000000000C4
:104CF00000000000000000000000000000000000B4
:104D000000000000000000000000000000000000A3
:104D10000000000000000000000000000000000093
:104D20000000000000000000000000004E00000035
:104D300046464646464646463030303030303031C2
:104D40003030303030303030303030303030303063
:104D500030303030303030304646464646464646A3
:104D600046464646464646464646464646464646E3
:104D70000000000000000000000000000000000033
:104D80000000000000000000000000000000000023
:104D90000000000000000000000000000000000013
:104DA0000000000000000000000000000000000003
:104DB00000000000000000000000000000000000F3
:104DC00000000000000000000000000000000000E3
:104DD00000000000000000000000000000000000D3
:104DE0004E00000046464646464646463030303085
:104DF00030303030464646464646464646464646AB
:104E0000464646464243453646414144413731379E
:104E100039453834463342394341433246433633C9
:104E200032353531000000000000000000000000B5
:104E30000000000000000000000000000000000072
:104E40000000000000000000000000000000000062
:104E50000000000000000000000000000000000052
:104E60000000000000000000000000000000000042
:104E70000000000000000000000000000000000032
:104E80000000000000000000000000000000000022
:104E900000000000000100000A0000000500000002
:104EA000020000000000000003000000600000009D
:104EB0004646464646464646464646464646464692
:104EC0004646464646464646464646464646464682
:104ED0004646464646464646464646464646464672
:104EE0004646464646464646464646464646464563
:104EF0004646464646464646303030303030303002
:104F000030303030303030304646464646464643F4
:104F10000000000000000000000000000000000091
:104F20000000000000000000000000000000000081
:104F30000000000000000000000000000000000071
:104F400062333331326661376532336565376534D4
:104F50003938386530353662653366383264313910
:104F60003138316439633665666538313431313210
:104F70003033313430383866353031333837356195
:104F800063363536333938643861326564313964B3
:104F900032613835633865646433656332616566F0
:104FA0000000000000000000000000000000000001
:104FB00000000000000000000000000000000000F1
:104FC00000000000000000000000000000000000E1
:104FD0006161383763613232626538623035333748
:104FE0003865623163373165663332306164373436
:104FF0003665316433623632386261373962393846
:1050000035396637343165303832353432613338CA
:10501000353530326632356462663535323936635D
:10502000336135343565333837323736306162377E
:105030000000000000000000000000000000000070
:105040000000000000000000000000000000000060
:105050000000000000000000000000000000000050
:105060003336313764653461393632363263366609
:1050700035643965393862663932393264633239B8
:10508000663866343164626432383961313437638A
:10509000653964613331313362356630623863308B
:1050A0003061363062316365316437653831396477
:1050B0003761343331643763393065613065356663
:1050C00000000000000000000000000000000000E0
:1050D00000000000000000000000000000000000D0
:1050E00000000000000000000000000000000000C0
:1050F00074000000464646464646464646464646F4
:10510000464646464646464646464646464646463F
:10511000464646464646464646464646464646462F
:10512000464646464646464646464646464646461F
:105130004646464546464646464646463030303068
:105140003030303030303030303030304646464607
:105150004646464600000000000000000000000037
:10516000000000000000000000000000000000003F
:10517000000000000000000000000000000000002F
:10518000000000000000000000000000000000001F
:10519000000000000000000000000000000000000F
:1051A000000000007400000046464646464646465B
:1051B000464646464646464646464646464646468F
:1051C000464646464646464646464646464646467F
:1051D00046464646464646464337363334443831DB
:1051E0004634333732444446353831413044423214
:1051F00034384230413737414543454331393641F0
:1052000043434335323937330000000000000000CB
:10521000000000000000000000000000000000008E
:10522000000000000000000000000000000000007E
:10523000000000000000000000000000000000006E
:10524000000000000000000000000000000000005E
:105250000000000000000000800100000C000000C1
:105260000300000002000000000000000400000035
:105270008300000031464646464646464646464678
:1052800046464646464646464646464646464646BE
:1052900046464646464646464646464646464646AE
:1052A000464646464646464646464646464646469E
:1052B000464646464646464646464646464646468E
:1052C000464646464646464646464646464646467E
:1052D000464646464646464646464646464646466E
:1052E000464646464646464646464646464646465E
:1052F00046464646464643000000000000000000C7
:1053000000000000303531393533656239363138C7
:105310006531633961316639323961323161306208
:10532000363835343065656132646137323562391B
:10533000396233313566336238623438393931385D
:105340006566313039653135363139333935316556
:1053500063376539333762313635326330626433EF
:1053600062623162663037333537336466383833DA
:10537000643263333466316566343531666434369D
:10538000623530336630300000000000000000005D
:10539000000000003063363835386530366237300B
:1053A0003430346539636439653365636236363267
:1053B0003339356234343239633634383133393045
:1053C00035336662353231663832386166363036AA
:1053D00062346433646261613134623565373765E4
:1053E0006665373539323866653164633132376125
:1053F000326666613864653333343862336331381A
:105400003536613432396266393765376533316331
:10541000326535626436360000000000000000008E
:1054200000000000313138333932393661373839CC
:1054300061336263303034356338613566623432EB
:105440006337643162643939386635343434393518
:105450003739623434363831376166626431373215
:105460003733653636326339376565373239393522
:105470006566343236343063353530623930313335
:1054800066616430373631333533633730383661EF
:10549000323732633234303838626539343736392E
:1054A0006664313636353000000000000000000030
:1054B000000000009D000000314646464646464634
:1054C000464646464646464646464646464646467C
:1054D000464646464646464646464646464646466C
:1054E000464646464646464646464646464646465C
:1054F000464646464646464646464646464646464C
:10550000464646464646464646464646464646463B
:10551000464646464646464646464646464646462B
:10552000464646464646464646464646464646461B
:105530004646464646464646464646000000000069
:10554000000000000000000000000000000000005B
:10555000000000000000000000000000000000004B
:1055600000000000000000009D000000314646469B
:1055700046464646464646464646464646464646CB
:1055800046464646464646464646464646464646BB
:1055900046464646464646464646464646464646AB
:1055A00046464646464646464646464646464135B1
:1055B0003138363837383342463246393636423754
:1055C000464343303134384637303941354430333F
:1055D00042423543394238383939433437414542FC
:1055E0004236464237314539313338363430390066
:1055F00000000000000000000000000000000000AB
:10560000000000000000000000000000000000009A
:10561000000000000000000000000000090200007F
:10562000200000002000000020000000000000001A
:105630000A000000290000003030303030303030B7
:10564000303030303030303030303030303030305A
:10565000303030303030303030303030303030304A
:105660003100000000000000000000000000000009
:10567000000000000000000000000000000000002A
:10568000000000000000000000000000000000001A
:10569000000000000000000000000000000000000A
:1056A00000000000000000000000000000000000FA
:1056B00000000000000000000000000000000000EA
:1056C0000000000000000000323061363031393017
:1056D000376238633935336361313438316562316B
:1056E00030353132663738373434613332303566ED
:1056F0006400000000000000000000000000000046
:105700000000000000000000000000000000000099
:105710000000000000000000000000000000000089
:105720000000000000000000000000000000000079
:105730000000000000000000000000000000000069
:105740000000000000000000000000000000000059
:1057500000000000000000003366306562613136F1
:105760003238366132643537656130393931313636
:105770003864343939343633376538333433653344
:1057800036000000000000000000000000000000E3
:105790000000000000000000000000000000000009
:1057A00000000000000000000000000000000000F9
:1057B00000000000000000000000000000000000E9
:1057C00000000000000000000000000000000000D9
:1057D00000000000000000000000000000000000C9
:1057E000000000000000000030643531666263365E
:1057F0006337316130303934666132636464353423
:10580000356231316335633063373937333234666B
:105810003100000000000000000000000000000057
:105820000000000000000000000000000000000078
:105830000000000000000000000000000000000068
:105840000000000000000000000000000000000058
:105850000000000000000000000000000000000048
:105860000000000000000000000000000000000038
:1058700000000000000000004400000046464646CC
:1058800046464646464646464646464646464646B8
:105890004646464646464646464646463030303000
:1058A00030303030303030303030303030303030F8
:1058B0003030303100000000000000000000000027
:1058C00000000000000000000000000000000000D8
:1058D00000000000000000000000000000000000C8
:1058E00000000000000000000000000000000000B8
:1058F00000000000000000000000000000000000A8
:105900000000000000000000000000000000000097
:105910000000000000000000000000000000000087
:105920000000000000000000000000003100000046
:105930003430303030303030303030303030303063
:1059400030303030323932464537374537304331E1
:10595000324134323334433333000000000000005E
:105960000000000000000000000000000000000037
:105970000000000000000000000000000000000027
:105980000000000000000000000000000000000017
:105990000000000000000000000000000000000007
:1059A00000000000000000000000000000000000F7
:1059B00000000000000000000000000000000000E7
:1059C00000000000000000000000000000000000D7
:1059D00000000000000000000000000000000000C7
:1059E000A300000007000000060000000300000004
:1059F000010000000B0000003B00000030303030A0
:105A00003030303030303030303030303030303096
:105A10003030303030303030303030303030303086
:105A20003030303030303030303030303030303076
:105A30003030303030303100000000000000000015
:105A40000000000000000000000000000000000056
:105A50000000000000000000000000000000000046
:105A60000000000000000000000000000000000036
:105A70000000000000000000000000000000000026
:105A80000000000000000000000000003036363644
:105A90003437656465366333333263376638633071
:105AA0003932336262353832313362333333623202
:105AB0003065396365343238316665313135663782
:105AC00064386639306164000000000000000000A6
:105AD00000000000000000000000000000000000C6
